:100000000C9446000C9465000C9465000C946500FB
:100010000C9465000C9465000C9465000C946500CC
:100020000C9465000C9465000C9465000C946500BC
:100030000C9471010C9465000C9465000C9465009F
:100040000C9465000C9465000C9465000C9465009C
:100050000C9465000C9465000C9465000C9465008C
:100060000C9465000C9465000C9465000C9465007C
:100070000C9465000C9465000C9465000C9465006C
:100080000C9465000C9465000C94650011241FBE4F
:10009000CFEFD0E1DEBFCDBF11E0A0E0B1E0ECE8F2
:1000A000FEE100E00BBF02C007900D92A033B10744
:1000B000D9F711E0A0E3B1E001C01D92A43BB10764
:1000C000E1F70E9445010C94440F0C940000AA9A99
:1000D00081E28A95F1F7000083B3AA9882958F7028
:1000E00090E00895EF92FF920F931F93CF93DF93C9
:1000F0000FE004BB182F126015BB0E946700EC01D3
:1001000084E0CC0FDD1F8A95E1F704BB15BB0E948C
:100110006700C82BD92BCE01DF91CF911F910F9192
:10012000FF90EF90089580E090E00E94720087FDBC
:10013000FACF08952FEF24BB24E0880F991F2A954A
:10014000E1F7682B65BB0E94670008950F931F932A
:10015000CF93DF93EC018B0134E0959587953A9529
:10016000E1F70E949A00CE01B8010E949A000E9415
:100170009300DF91CF911F910F91089583E090E05C
:1001800060E070E00E949A0081EE94E00197F1F740
:1001900000C0000083E090E060E070E00E949A0000
:1001A00081EE94E00197F1F700C0000083E090E059
:1001B00060E070E00E949A0081EE94E00197F1F710
:1001C00000C0000082E090E060E070E00E949A00D1
:1001D00081EE94E00197F1F700C000008CE290E01E
:1001E00060E070E00E94A60088E090E060E070E0CF
:1001F0000E94A60081E090E060E070E00E94A6000E
:1002000086E090E060E070E00E94A6000895DF9331
:10021000CF9300D0CDB7DEB70E94720089839A8356
:100220000E94930089819A810F900F90CF91DF9166
:100230000895F89482B1806382B91C981D9A8FB595
:100240008C7F8FBD8EB588608EBD8EB58F7E8EBD46
:1002500087B7806187BF81E08BBD86E38ABD8EB59D
:1002600085608EBDD098D298D498D69A0E94BE0050
:100270008CE090E060E070E00E94A60081E090E0F9
:1002800060E070E00E94A6000895CF93DF930E9483
:1002900019010E94CF02C1E0D0E083EC99E0019700
:1002A000F1F700C000000E94CF04009749F41092BB
:1002B0003101109230010E94EC040E94ED03EDCF59
:1002C0008091300190913101009731F40E947006C5
:1002D000D0933101C09330010E9400060E940105B5
:1002E000DCCF1F920F920FB60F9211248F939F9322
:1002F00083B190E3892783B99F918F910F900FBEAF
:100300000F901F901895CF93DF93CBEBD1E082E055
:1003100090E0FE01099581E090E0FE0109950E94C0
:100320001F020E949304DF91CF910895809159019B
:10033000843071F480913601909137010196909349
:100340003701809336018430910514F010925901E1
:1003500080916901843071F4809136019091370168
:10036000019690933701809336018430910514F003
:10037000109269010895BF92CF92DF92EF92FF929F
:100380000F931F93CF93DF93D82E0AE511E0CAE6AF
:10039000D1E02FE0E22EF12C90E2B92E83E0C82EBE
:1003A000F80182918F018D15D1F4B082FFE0EF1634
:1003B000F104A9F0F8018181882319F40E94180240
:1003C0000EC0843019F4F801818309C0813011F026
:1003D000833019F4F801C18202C0F801D1828A91F8
:1003E0008D15B1F4B882FFE0EF16F10489F0898130
:1003F000882319F40E9418020BC0843011F48983F9
:1004000007C0813011F0833011F4C98201C0D98254
:100410000894E108F108E114F10411F6DF91CF919D
:100420001F910F91FF90EF90DF90CF90BF900895B4
:1004300081E090E090936D0180936C0108950E949B
:10044000F80B6AE070E00E944C0B009721F421E069
:1004500020934C011DC08130910521F421E02093AF
:100460005C0116C08230910599F4209170013091A1
:1004700071012115310561F481E080934C01809375
:100480005C0181E090E09093710180937001089588
:1004900010927101109270018330910521F482E075
:1004A00080934C0108958430910519F482E0809383
:1004B0005C010895EF92FF920F931F93CF93DF9308
:1004C0006091320170913301809134019091350136
:1004D0002DEC3CEC4CE45DE30E946B087B018C014D
:1004E000762F272F3F2D402F512F2093320130930D
:1004F0003301409334015093350160E070E088ECA3
:1005000092E40E94980820E030E040EA51E40E9422
:10051000C9080E94C30970936B0160936A010E942D
:100520009601609132017091330180913401909174
:1005300035010E94C309FB01CB0164E670E00E9413
:100540004C0B2AE030E0B9010E944C0B605D6093D7
:100550004A01CF01B9010E944C0B805D80934B0191
:10056000CAE4D1E0899190E061E070E00E94A600C9
:1005700081E0C237D807B1F7CAE5D1E0899190E0B0
:1005800061E070E00E94A60081E0C238D807B1F7B0
:10059000DF91CF911F910F91FF90EF900895EAE4C2
:1005A000F1E0AAE5B1E080E281938D9391E0EA3534
:1005B000F907D1F710926D0110926C011092710140
:1005C0001092700180ED97E090936B0180936A0127
:1005D00010926F0110926E01109249011092480121
:1005E00080E490E060E070E00E94A60080E090E08F
:1005F00061E070E00E94A60080E090E061E070E0C1
:100600000E94A6008FE190E061E070E00E94A600E9
:1006100087E190E061E070E00E94A60087E190E051
:1006200061E070E00E94A6008FE190E061E070E080
:100630000E94A60080E090E061E070E00E94A600C9
:1006400080E090E061E070E00E94A60080E090E031
:1006500061E070E00E94A60080E090E061E070E060
:100660000E94A6008FE190E061E070E00E94A60089
:100670008DE190E061E070E00E94A6008DE190E0E5
:1006800061E070E00E94A6008FE190E061E070E020
:100690000E94A60080E090E061E070E00E94A60069
:1006A00080E090E061E070E00E94A60080E090E0D1
:1006B00061E070E00E94A60080E090E061E070E000
:1006C0000E94A60089E190E061E070E00E94A6002F
:1006D0008FE190E061E070E00E94A6008FE190E081
:1006E00061E070E00E94A60089E190E061E070E0C6
:1006F0000E94A60080E090E061E070E00E94A60009
:1007000080E090E061E070E00E94A60080E090E070
:1007100061E070E00E94A60086E190E061E070E098
:100720000E94A60083E090E061E070E00E94A600D5
:1007300087E090E061E070E00E94A6008FE090E02A
:1007400061E070E00E94A60087E090E061E070E068
:100750000E94A60082E090E061E070E00E94A600A6
:1007600080E090E061E070E00E94A6008CE090E004
:1007700061E070E00E94A6008CE090E061E070E033
:100780000E94A6008FE190E061E070E00E94A60068
:1007900087E190E061E070E00E94A60087E190E0D0
:1007A00061E070E00E94A6008FE190E061E070E0FF
:1007B0000E94A6008CE090E061E070E00E94A6003C
:1007C0008CE090E061E070E00E94A60080E890E09C
:1007D00060E070E00E94A6000895CF93DF938091BF
:1007E0003801909139010196909339018093380135
:1007F000C0916A01D0916B0120913A0130913B0187
:10080000C21BD30BCA30D10514F4CAE0D0E09E015C
:1008100035952795359527958217930731F482E012
:1008200090E00E94BB010E945A02CE0195958795E7
:1008300020913801309139012817390721F40E949D
:1008400083010E945A0280913801909139018C17DE
:100850009D0764F00E94830183E090E00E94BB0149
:1008600010923901109238010E945A02DF91CF9103
:10087000089580915901843031F021E030E0809179
:100880006901843011F420E030E0C90108950E942C
:100890003904009729F080E2809359011092690190
:1008A00008950E943904009729F01092590180E2BE
:1008B00080936901089580913A0190913B018C5990
:1008C0009F4F90933B0180933A0180913801909122
:1008D00039018456904090933901809338010895EE
:1008E00080913A0190913B0120913801309139017A
:1008F000843691056CF08456904090933B01809330
:100900003A012C593F4F3093390120933801089513
:10091000820F931F909339018093380110923B010D
:1009200010923A01089580916E0190916F0181308B
:10093000910531F410926F0110926E010E945B04D8
:1009400080914801909149018130910531F41092D4
:100950004901109248010E947004089581E090E0DE
:1009600090936F0180936E01089581E090E09093E1
:10097000490180934801089580915901882319F411
:1009800084E08093590180916901882319F484E0FF
:100990008093690110923701109236010895809179
:1009A0006C0190916D0108950E94CF0280E090E06B
:1009B000DC018093320190933301A0933401B09312
:1009C000350110926D0110926C0180ED97E09093CB
:1009D0006B0180936A010895C89902C00E94510476
:1009E000C99902C00E94AE04CA9902C00E94BC0408
:1009F000CB9B02C00E94B504CC9902C00E94470460
:100A00000895C89902C00E945B06C99902C00E945D
:100A10006206CA9902C00E94D404CB9902C00E9407
:100A20006906CC9902C00E9454060895E199FECF50
:100A30009FBB8EBB6DBBE29AE19A0895E199FECF10
:100A40009FBB8EBBE09A8DB3089508951092430129
:100A500010924201E0912201F0912301E055FE4FF6
:100A6000808181508083803411F48AE580830895E9
:100A70001092410110924001E0912201F091230176
:100A8000E055FE4F80818F5F80838B3511F481E4C8
:100A900080830895109245011092440180912201B3
:100AA000909123018130910529F0019790932301C2
:100AB000809322010895109247011092460180917F
:100AC0002201909123018330910529F001969093A2
:100AD00023018093220108950F931F93CF93DF93F7
:100AE00081E48093B00181E090E090933D01809398
:100AF0003C014091B101409377013091B2013093B4
:100B000078012091B301209379018DB79EB7449766
:100B10000FB6F8949EBF0FBE8DBFEDB7FEB73196EE
:100B200080EA91E0ADB7BEB712969C938E93119771
:100B300009E011E01383028380917301848315829D
:100B40008091740186831782809175018087118658
:100B500080919601909197019387828744871586AB
:100B600036871786208B118A809198019091990180
:100B7000938B828B0E94080CCDB7DEB7219686E856
:100B800091E0EDB7FEB7928381831B830A83809146
:100B90007B018C831D8280917C018E831F828091DA
:100BA0007D018887198680919A0190919B019B878E
:100BB0008A8780917F018C871D86809180018E8736
:100BC0001F8680918101888B198A60913201709112
:100BD000330180913401909135010E94C3097B8BD0
:100BE0006A8B0E94080C8DB79EB744960FB6F89496
:100BF0009EBF0FBE8DBFDF91CF911F910F910895C2
:100C0000CF93DF9380913E0190913F0101969093A5
:100C10003F0180933E018233910559F58091400157
:100C200090914101009719F00E9438051AC08091F7
:100C3000420190914301009719F00E94260511C0CE
:100C40008091440190914501009719F00E944A0556
:100C500008C08091460190914701009721F00E94C1
:100C60005B050E9425050E946C0510923F011092C1
:100C70003E01C0EAD1E0899190E061E070E00E941D
:100C8000A60081E0C83CD807B1F7C6E8D1E0899159
:100C900090E061E070E00E94A60081E0CE3AD807C3
:100CA000B1F7DF91CF91089581E090E090934301F7
:100CB00080934201089581E090E0909341018093F8
:100CC0004001089581E090E09093450180934401B4
:100CD000089581E090E09093470180934601089544
:100CE000BF92CF92DF92EF92FF920F931F93CF9319
:100CF000DF9373E7E72E71E0F72E61E0C62ED12C6B
:100D000000E010E051E4B52EE801D595C795D595E2
:100D1000C795C8010E941E05CC0FDD1FCA56DE4FC5
:100D200088831982C6010E941E05F7018083C801CD
:100D300002960E941E05F7018183C80103960E9456
:100D40001E05F7018283888199818F3F910511F4F7
:100D500019821882F601EE58FE4F81E090E0208162
:100D600021502E3F08F0B0820196319684309105D3
:100D7000B1F70C5F1F4F84E090E0C80ED91EE80E5B
:100D8000F91E0031110509F0BFCF1092A101109298
:100D9000A00181E480938301809384018093850185
:100DA000609132017091330180913401909135014D
:100DB0000E94C309E6E9F1E080E090E001C00196FD
:100DC0002191319162177307D4F3A6E9B1E0E2E70C
:100DD000F1E024E030E010C01A964D915C911B9731
:100DE0001D965C934E931C974589418F4689428F8F
:100DF0004789438F215030401297349782179307C9
:100E00005CF3FC01EE0FFF1FEA56FE4F7183608317
:100E100021E42093B0012093B1012093B2012093EB
:100E2000B30190933D0180933C010E946C05DF91DA
:100E3000CF911F910F91FF90EF90DF90CF90BF90D7
:100E40000895A0E0B0E0E7E2F7E00C94770BFC0136
:100E5000EA018081823008F438C1DB019C91923034
:100E600008F430C1843059F4943009F02EC19181D6
:100E700011968C911197981709F021C126C19430D1
:100E800009F420C19230B1F4823009F01EC1CA01C8
:100E9000AF0128E0DA010D90AD01DC010D92CD012A
:100EA0002150C1F7DB0111968C9111979181892313
:100EB00089830AC1823009F405C1C280D380DB0175
:100EC00012966D907C9013972481358146815781CD
:100ED0001496ED90FD900D911C911797C6018619FF
:100EE00097095C0197FF04C0AA24BB24A81AB90A79
:100EF000B0E2AB16B1040CF061C0181619066CF51F
:100F0000370148010A2C04C096948794779467941B
:100F10000A94D2F781E090E0A0E0B0E00A2C04C08F
:100F2000880F991FAA1FBB1F0A94D2F70197A10926
:100F3000B1098E219F21A023B123EE24FF24870134
:100F4000E3940097A105B10519F4EE24FF2487016D
:100F5000E628F728082919293CC00097D1F1CA0CC6
:100F6000DB1C39014A010A2C04C0969487947794BB
:100F700067940A94D2F781E090E0A0E0B0E00A2CF8
:100F800004C0880F991FAA1FBB1F0A94D2F70197AC
:100F9000A109B10982239323A423B52321E030E0E2
:100FA00040E050E00097A105B10519F420E030E0E1
:100FB000A90126293729482959290BC06C147D0419
:100FC00024F4EE24FF24870104C0630120E030E014
:100FD000A9018181FB019181891709F445C088230A
:100FE00049F0D801C701821B930BA40BB50B9C01E0
:100FF000AD0104C02E193F09400B510B57FD04C031
:101000001982DB82CA820BC081E08983DB82CA82BB
:1010100050954095309521953F4F4F4F5F4F2C8312
:101020003D834E835F830DC0880F991FAA1FBB1F8E
:101030008C839D83AE83BF838A819B8101979B8331
:101040008A838C819D81AE81BF819C01AD0121503D
:101050003040404050402F3FEFEF3E07EFEF4E074C
:10106000EFE35E0708F30BC08983DB82CA822E0D93
:101070003F1D401F511F2C833D834E835F8383E0C0
:1010800088832C813D814E815F8157FF1DC0DA012D
:10109000C90181709070A070B070569547953795D2
:1010A0002795822B932BA42BB52B8C839D83AE830A
:1010B000BF838A819B8101969B838A8305C0E4E27A
:1010C000F1E003C0FB0101C0FE01CF01CDB7DEB7E7
:1010D000EEE00C94930BA0E2B0E0E1E7F8E00C94B2
:1010E0007F0B69837A838B839C832D833E834F831D
:1010F000588789E0E82EF12CEC0EFD1ECE010196FA
:10110000B7010E94E30A8E010F5E1F4FCE010596C4
:10111000B8010E94E30AC701B801AE01475E5F4F04
:101120000E9421070E94150AA096E6E00C949B0BF2
:10113000A0E2B0E0EEE9F8E00C947F0B69837A83DB
:101140008B839C832D833E834F8358878E01075F5B
:101150001F4FCE010196B8010E94E30A91E1E92EEA
:10116000F12CEC0EFD1ECE010596B7010E94E30A9C
:101170008A8991E089278A8BC801B701AE01475E51
:101180005F4F0E9421070E94150AA096E6E00C948A
:101190009B0BA0E2B0E0EFECF8E00C94730B6983DA
:1011A0007A838B839C832D833E834F835887CE0124
:1011B0000196BE01675F7F4F0E94E30ACE0105964C
:1011C000BE016F5E7F4F0E94E30A9985923078F0EE
:1011D00089898230C0F0943019F4823041F4CBC058
:1011E000843019F4923079F4C6C0923051F481E021
:1011F0002A859A89291709F480E08A87CE01099601
:10120000BCC0823051F481E02A859A89291709F4FB
:1012100080E08A8BCE014196B0C06D847E848F843D
:101220009888ED88FE880F89188DE0E2F0E080E074
:1012300090E0DC01AA24BB24650120E030E0A90194
:10124000B3016170707061157105D1F02E0D3F1DF5
:10125000401F511F15012601280E391E4A1E5B1E14
:1012600081E090E0A0E0B0E02E153F054007510777
:1012700018F080E090E0DC01820D931DA41DB51DE7
:10128000AA0CBB1CCC1CDD1C17FF09C061E0262E7C
:10129000312C412C512CA228B328C428D5283197B1
:1012A00049F0EE0CFF1C001F111F96948794779451
:1012B0006794C6CF6B897C89EB85FC856E0F7F1F99
:1012C0006E5F7F4F7C8F6B8F61E0EA857A89E717CD
:1012D00009F460E06A8F6B8D7C8D10C0FC01E170B9
:1012E000F070309729F056954795379527955068B7
:1012F000B695A795979587956F5F7F4FB7FDEECF12
:101300000CC0880F991FAA1FBB1F57FD8160220FB9
:10131000331F441F551F615070408030E0E09E072E
:10132000E0E0AE07E0E4BE0760F36B8F7C8F6FE711
:10133000E62EF12C012D112DE822F9220A231B2380
:1013400060E4E616F1040105110561F487FD0AC0A9
:10135000211531054105510529F0805C9F4FAF4FA4
:10136000BF4F80788D8F9E8FAF8FB8A383E0898F1A
:10137000CE01499602C084E291E00E94150AA0962F
:10138000E2E10C948F0BACE0B0E0E9ECF9E00C94F6
:10139000830B69837A838B839C83CE010196BE0184
:1013A0006B5F7F4F0E94E30A8D81823081F1823032
:1013B00070F1843021F48E81882369F10AC02F8175
:1013C000388537FD24C06E812F3131053CF066230E
:1013D00011F120E030E040E050E821C08EE190E0E3
:1013E000821B930B29853A854B855C8504C05695F5
:1013F0004795379527958A95D2F7662381F05095C2
:101400004095309521953F4F4F4F5F4F08C020E0EA
:1014100030E0A90104C02FEF3FEF4FEF5FE7B901C4
:10142000CA012C96E2E00C949F0BEF92FF920F936F
:101430001F93CF93DF93FC0124813581468157812F
:1014400061818081823020F44061EFEFF0E0A3C041
:10145000843009F49BC0823009F492C02115310513
:101460004105510509F48FC00280F381E02D8FEF13
:10147000E238F8070CF05AC0C2E8DFEFCE1BDF0BF2
:10148000CA31D1056CF579018A010C2E04C016957C
:101490000795F794E7940A94D2F781E090E0A0E0F2
:1014A000B0E00C2E04C0880F991FAA1FBB1F0A941E
:1014B000D2F70197A109B10982239323A423B5236D
:1014C00021E030E040E050E00097A105B10519F4BB
:1014D00020E030E0A9012E293F29402B512B03C0E9
:1014E00020E030E0A901DA01C9018F779070A07087
:1014F000B07080349105A105B10539F427FF09C00A
:10150000205C3F4F4F4F5F4F04C0215C3F4F4F4F18
:101510005F4FE1E0F0E0203080E0380780E04807EE
:1015200080E4580728F5E0E0F0E022C0E038F1055B
:101530006CF5E158FF4FDA01C9018F779070A07008
:10154000B07080349105A105B10539F427FF09C0B9
:10155000205C3F4F4F4F5F4F04C0215C3F4F4F4FC8
:101560005F4F57FF05C0569547953795279531969C
:1015700087E056954795379527958A95D1F70BC003
:10158000E0E0F0E005C0E0E0F0E005C0EFEFF0E003
:1015900020E030E0A9018E2F879588278795942F2A
:1015A0009F77679566276795E695E22EA92FA82B6A
:1015B000FE2FF62B622F732F8A2F9F2FCDB7DEB70A
:1015C000E6E00C949B0BDC01FB012C9111963C9105
:1015D000119712968C911297482F4F7750E0982FC1
:1015E000991F9927991F13966C911397862F880F2F
:1015F000892B90E0661F6627661F6183009739F587
:10160000211531054105510511F482E029C082E818
:101610009FEF9383828367E0220F331F441F551F80
:101620006A95D1F783E0808309C0220F331F441FDE
:10163000551F82819381019793838283203080E0BC
:10164000380780E0480780E4580778F320C08F3FD0
:10165000910579F4211531054105510519F484E00E
:101660008083089544FF03C081E0808310C010820E
:101670000EC08F5790409383828383E0808387E0FE
:10168000220F331F441F551F8A95D1F750642483BE
:10169000358346835783089597FB092E07260AD082
:1016A00077FD04D00CD006D000201AF47095619517
:1016B0007F4F0895F6F7909581959F4F0895AA1B47
:1016C000BB1B51E107C0AA1FBB1FA617B70710F02D
:1016D000A61BB70B881F991F5A95A9F7809590955F
:1016E000BC01CD0108952F923F924F925F926F926D
:1016F0007F928F929F92AF92BF92CF92DF92EF92A2
:10170000FF920F931F93CF93DF93CDB7DEB7CA1B22
:10171000DB0B0FB6F894DEBF0FBECDBF09942A884D
:10172000398848885F846E847D848C849B84AA84F5
:10173000B984C884DF80EE80FD800C811B81AA8182
:10174000B981CE0FD11D0FB6F894DEBF0FBECDBF4D
:10175000ED010895AF92BF92CF92DF92EF92FF9288
:101760000F931F93CF93DF93EC01688179818A8176
:101770009B81611571058105910521F464E279ED84
:101780008BE597E02DE133EF41E050E00E94070F39
:1017900079018A0127EA31E440E050E00E94E80E36
:1017A0005B016C01C801B7012CEE34EF4FEF5FEF26
:1017B0000E94E80E6A0D7B1D8C1D9D1D97FF04C0C5
:1017C0006150704080409048688379838A839B830E
:1017D0007F77CB01DF91CF911F910F91FF90EF9019
:1017E000DF90CF90BF90AF9008950E94AA0B08950C
:1017F0008CE291E00E94AA0B0895A0E0B0E08093F3
:101800002C0190932D01A0932E01B0932F010895E8
:101810000F931F93DF93CF93CDB7DEB72E970FB6FD
:10182000F894DEBF0FBECDBF0D891E8986E08C8384
:101830001A8309838FEF9FE79E838D839E01275E26
:101840003F4FCE0101966F89788DA9010E94380C17
:10185000EF81F885E00FF11F10822E960FB6F894F5
:10186000DEBF0FBECDBFCF91DF911F910F910895C5
:101870002F923F924F925F926F927F928F929F92A0
:10188000AF92BF92CF92DF92EF92FF920F931F938E
:10189000DF93CF93CDB7DEB72C970FB6F894DEBFAA
:1018A0000FBECDBF6C011B018A01FC01178216829D
:1018B000838181FFD1C12E010894411C511CF60186
:1018C0009381F10193FD859193FF81911F018823FD
:1018D00009F4BEC1853239F493FD859193FF81915E
:1018E0001F01853229F490E0B6010E945E0EE7CF19
:1018F000EE24FF2420E02032B0F48B3269F08C32E9
:1019000028F4803251F0833271F40BC08D3239F0FB
:10191000803349F421602CC02260246029C02860F3
:1019200027C0206125C027FD2CC0382F30533A3006
:1019300098F426FF08C08E2D880FE82EEE0CEE0CD2
:10194000E80EE30E15C08F2D880FF82EFF0CFF0C4C
:10195000F80EF30E20620CC08E3221F426FD78C101
:10196000206406C08C3611F4206802C0883649F421
:10197000F10193FD859193FF81911F01882309F067
:10198000BACF982F9554933018F09052933028F492
:101990000C5F1F4FFFE3F9830DC0833631F08337AF
:1019A00071F0833509F060C022C0F801808189831D
:1019B0000E5F1F4F420171E0A72EB12C16C062E0EE
:1019C000662E712C600E711EF8018080918026FFBA
:1019D00003C06E2D70E002C06FEF7FEFC4012C8753
:1019E0000E94530E5C0183012C852F7717C052E0B3
:1019F000652E712C600E711EF8018080918026FF8B
:101A000003C06E2D70E002C06FEF7FEFC4012C8722
:101A10000E94480E5C012C852068830123FD20C0B4
:101A200008C080E290E0B6012C870E945E0EFA9416
:101A30002C858F2D90E0A816B90698F311C0F401FB
:101A400027FD859127FF81914F0190E0B6012C87FA
:101A50000E945E0E2C85F110FA940894A108B1083A
:101A6000A114B10461F7F1C0843611F0893649F54B
:101A700027FF08C0F80160817181828193810C5F2A
:101A80001F4F09C0F80160817181882777FD80951B
:101A9000982F0E5F1F4F4FE6B42EB22297FF09C05A
:101AA00090958095709561957F4F8F4F9F4FF0E88F
:101AB000BF2AA2012AE030E00E948A0E782E741814
:101AC00045C0853731F43FEEB32EB2222AE030E034
:101AD00025C099EFB92EB2228F36C1F0803720F49D
:101AE000883509F0B5C00DC0803721F0883709F07E
:101AF000AFC002C020E1B22AB4FE0BC084E0B82A15
:101B000008C0B4FE09C0E6E0BE2A06C028E030E006
:101B100005C020E130E002C020E132E0B7FE08C09D
:101B2000F80160817181828193810C5F1F4F07C032
:101B3000F8016081718180E090E00E5F1F4FA2018B
:101B40000E948A0E782E7418FFE7BF22B6FE0BC0E3
:101B50002EEFB2227E1438F4B4FE07C0B2FC05C0EA
:101B60008FEEB82202C0A72C01C0AE2C8B2D90E0C6
:101B7000B4FE0DC0FE01E70DF11D2081203319F4E4
:101B8000E9EEBE2209C0A394B2FE06C004C0867866
:101B90009070009709F0A3948B2C9924B3FC14C087
:101BA000B0FE0FC0AF1428F4E72CEF0CEA18AF2CEE
:101BB00008C0E72C06C080E290E0B6010E945E0EED
:101BC000A394AF14C0F304C0AF1410F4FA1801C00A
:101BD000FF2484FE0FC080E390E0B6010E945E0EF9
:101BE00082FE1FC081FE03C088E590E010C088E738
:101BF00090E00DC0C40186789070009791F081FC50
:101C000002C080E201C08BE2B7FC8DE290E0B60139
:101C10000E945E0E06C080E390E0B6010E945E0E58
:101C2000EA947E14C0F37A94F201E70DF11D8081ED
:101C300090E0B6010E945E0E7720A9F706C080E210
:101C400090E0B6010E945E0EFA94FF20C1F737CEF5
:101C5000F6012681378102C02FEF3FEFC9012C9694
:101C60000FB6F894DEBF0FBECDBFCF91DF911F91AD
:101C70000F91FF90EF90DF90CF90BF90AF909F902B
:101C80008F907F906F905F904F903F902F9008952E
:101C9000FC010590615070400110D8F78095909537
:101CA0008E0F9F1F0895FC0161507040019001103C
:101CB000D8F7809590958E0F9F1F08950F931F93CF
:101CC000CF93DF938C01EB018B8181FF1BC082FFDF
:101CD0000DC02E813F818C819D812817390764F4C6
:101CE000E881F9810193F983E88306C0E885F985E5
:101CF000802F0995009731F48E819F8101969F83F3
:101D00008E8302C00FEF1FEFC801DF91CF911F91AB
:101D10000F910895FA01AA27283051F1203181F15D
:101D2000E8946F936E7F6E5F7F4F8F4F9F4FAF4FE3
:101D3000B1E03ED0B4E03CD0670F781F891F9A1FF6
:101D4000A11D680F791F8A1F911DA11D6A0F711DAA
:101D5000811D911DA11D20D009F468943F912AE0B6
:101D6000269F11243019305D3193DEF6CF0108959E
:101D7000462F4770405D4193B3E00FD0C9F7F6CFCF
:101D8000462F4F70405D4A3318F0495D31FD405297
:101D9000419302D0A9F7EACFB4E0A695979587952D
:101DA00077956795BA95C9F700976105710508950C
:101DB0009B01AC010A2E06945795479537952795B8
:101DC000BA95C9F7620F731F841F951FA01D089550
:101DD000629FD001739FF001829FE00DF11D649F0F
:101DE000E00DF11D929FF00D839FF00D749FF00D9B
:101DF000659FF00D9927729FB00DE11DF91F639F3C
:101E0000B00DE11DF91FBD01CF011124089597FB0D
:101E1000092E05260ED057FD04D014D00AD0001C80
:101E200038F450954095309521953F4F4F4F5F4F77
:101E30000895F6F790958095709561957F4F8F4F37
:101E40009F4F0895A1E21A2EAA1BBB1BFD010DC0D6
:101E5000AA1FBB1FEE1FFF1FA217B307E407F5075A
:101E600020F0A21BB30BE40BF50B661F771F881F36
:101E7000991F1A9469F760957095809590959B01CC
:0C1E8000AC01BD01CF010895F894FFCF24
:101E8C0001020300040400D00725632563256320A9
:101E9C0025326420256325632563202532642020A8
:101EAC002000010000000000000000000100000004
:00000001FF
