:100000000C9446000C9465000C9465000C946500FB
:100010000C9465000C9465000C9465000C946500CC
:100020000C9465000C9465000C9465000C946500BC
:100030000C945B010C9465000C9465000C946500B5
:100040000C9465000C9465000C9465000C9465009C
:100050000C9465000C9465000C9465000C9465008C
:100060000C9465000C9465000C9465000C9465007C
:100070000C9465000C9465000C9465000C9465006C
:100080000C9465000C9465000C94650011241FBE4F
:10009000CFEFD0E1DEBFCDBF11E0A0E0B1E0E8ECF2
:1000A000F4E100E00BBF02C007900D92A432B1074B
:1000B000D9F711E0A4E2B1E001C01D92A835B10763
:1000C000E1F70E9445010C94620A0C940000AA9A80
:1000D00081E28A95F1F7000083B3AA9882958F7028
:1000E00090E00895EF92FF920F931F93CF93DF93C9
:1000F0000FE004BB182F126015BB0E946700EC01D3
:1001000084E0CC0FDD1F8A95E1F704BB15BB0E948C
:100110006700C82BD92BCE01DF91CF911F910F9192
:10012000FF90EF90089580E090E00E94720087FDBC
:10013000FACF08952FEF24BB24E0880F991F2A954A
:10014000E1F7682B65BB0E94670008950F931F932A
:10015000CF93DF93EC018B0134E0959587953A9529
:10016000E1F70E949A00CE01B8010E949A000E9415
:100170009300DF91CF911F910F91089583E090E05C
:1001800060E070E00E949A0081EE94E00197F1F740
:1001900000C0000083E090E060E070E00E949A0000
:1001A00081EE94E00197F1F700C0000083E090E059
:1001B00060E070E00E949A0081EE94E00197F1F710
:1001C00000C0000082E090E060E070E00E949A00D1
:1001D00081EE94E00197F1F700C000008CE290E01E
:1001E00060E070E00E94A60088E090E060E070E0CF
:1001F0000E94A60081E090E060E070E00E94A6000E
:1002000086E090E060E070E00E94A6000895DF9331
:10021000CF9300D0CDB7DEB70E94720089839A8356
:100220000E94930089819A810F900F90CF91DF9166
:100230000895F89482B1806382B91C981D9A8FB595
:100240008C7F8FBD8EB588608EBD8EB58F7E8EBD46
:1002500087B7806187BF81E08BBD86E38ABD8EB59D
:1002600085608EBDD098D298D498D69A0E94BE0050
:100270008CE090E060E070E00E94A60081E090E0F9
:1002800060E070E00E94A60008950E9419010E949B
:10029000E00283EC99E00197F1F700C000000E94B2
:1002A000E004009729F40E94FD040E94FE03F1CFB0
:1002B0000E941205EECF1F920F920FB60F921124DB
:1002C0008F939F9383B190E3892783B99F918F91F7
:1002D0000F900FBE0F901F901895CF93DF93C5EA34
:1002E000D1E082E090E0FE01099581E090E0FE011E
:1002F00009950E9430020E94A404DF91CF910895D5
:1003000080913F01843071F48091280190912901FE
:10031000019690932901809328018430910514F06F
:1003200010923F0180914F01843071F48091280137
:10033000909129010196909329018093280184309E
:10034000910514F010924F010895BF92CF92DF9261
:10035000EF92FF920F931F93CF93DF93D82E00E479
:1003600011E0C0E5D1E02FE0E22EF12C90E2B92EB1
:1003700083E0C82EF80182918F018D15D1F4B082EF
:10038000FFE0EF16F104A9F0F8018181882319F448
:100390000E9402020EC0843019F4F801818309C062
:1003A000813011F0833019F4F801C18202C0F801E4
:1003B000D1828A918D15B1F4B882FFE0EF16F10475
:1003C00089F08981882319F40E9402020BC08430CD
:1003D00011F4898307C0813011F0833011F4C98290
:1003E00001C0D9820894E108F108E114F10411F682
:1003F000DF91CF911F910F91FF90EF90DF90CF9001
:10040000BF900895DF93CF93CDB7DEB72A970FB68D
:10041000F894DEBF0FBECDBFDE011196E0E0F1E043
:100420008AE001900D928150E1F7FE013196A0E340
:10043000B1E0CE010B9602C021912D93E817F90788
:10044000D9F781E090E090935301809352012A966E
:100450000FB6F894DEBF0FBECDBFCF91DF910895E8
:100460000E94F6096AE070E00E944A09009721F4B0
:1004700021E0209332011DC08130910521F421E05B
:100480002093420116C08230910599F420915601C3
:10049000309157012115310561F481E080933201DB
:1004A0008093420181E090E0909357018093560140
:1004B000089510925701109256018330910521F44E
:1004C00082E08093320108958430910519F482E02E
:1004D000809342010895EF92FF920F931F93CF9361
:1004E000DF93609124017091250180912601909104
:1004F00027012DEC3CEC4CE45DE30E9469067B0196
:100500008C01762F272F3F2D402F512F2093240130
:1005100030932501409326015093270160E070E05D
:1005200088EC92E40E94960620E030E040EA51E434
:100530000E94C7060E94C107709351016093500149
:100540000E94800160912401709125018091260113
:10055000909127010E94C107FB01CB0164E670E086
:100560000E944A092AE030E0B9010E944A09605D10
:1005700060933001CF01B9010E944A09805D8093E8
:100580003101C0E3D1E0899190E061E070E00E9428
:10059000A60081E0C835D807B1F7C0E4D1E0899161
:1005A00090E061E070E00E94A60081E0C836D807C4
:1005B000B1F7DF91CF911F910F91FF90EF900895C8
:1005C000E0E3F1E0A0E4B1E080E281938D9391E07B
:1005D000E034F907D1F710925301109252011092B2
:1005E00057011092560180ED97E09093510180934E
:1005F0005001109255011092540110922F01109247
:100600002E0180E490E060E070E00E94A60080E0AF
:1006100090E061E070E00E94A60080E090E061E080
:1006200070E00E94A6008FE190E061E070E00E941F
:10063000A60087E190E061E070E00E94A60087E1FB
:1006400090E061E070E00E94A6008FE190E061E040
:1006500070E00E94A60080E090E061E070E00E94FF
:10066000A60080E090E061E070E00E94A60080E0DB
:1006700090E061E070E00E94A60080E090E061E020
:1006800070E00E94A6008FE190E061E070E00E94BF
:10069000A6008DE190E061E070E00E94A6008DE18F
:1006A00090E061E070E00E94A6008FE190E061E0E0
:1006B00070E00E94A60080E090E061E070E00E949F
:1006C000A60080E090E061E070E00E94A60080E07B
:1006D00090E061E070E00E94A60080E090E061E0C0
:1006E00070E00E94A60089E190E061E070E00E9465
:1006F000A6008FE190E061E070E00E94A6008FE12B
:1007000090E061E070E00E94A60089E190E061E085
:1007100070E00E94A60080E090E061E070E00E943E
:10072000A60080E090E061E070E00E94A60080E01A
:1007300090E061E070E00E94A60086E190E061E058
:1007400070E00E94A60083E090E061E070E00E940B
:10075000A60087E090E061E070E00E94A6008FE0D4
:1007600090E061E070E00E94A60087E090E061E028
:1007700070E00E94A60082E090E061E070E00E94DC
:10078000A60084E090E061E070E00E94A6008CE0AA
:1007900090E061E070E00E94A6008CE090E061E0F3
:1007A00070E00E94A6008FE190E061E070E00E949E
:1007B000A6008DE190E061E070E00E94A6008DE16E
:1007C00090E061E070E00E94A6008FE190E061E0BF
:1007D00070E00E94A6008CE090E061E070E00E9472
:1007E000A6008CE090E061E070E00E94A60080E846
:1007F00090E060E070E00E94A6000895CF93DF9340
:1008000080912A0190912B01019690932B01809366
:100810002A01C0915001D091510120912C013091B9
:100820002D01C21BD30BCA30D10514F4CAE0D0E0AD
:100830009E0135952795359527958217930731F4B5
:1008400082E090E00E94A5010E946B02CE01959586
:10085000879520912A0130912B012817390721F41F
:100860000E946D010E946B0280912A0190912B01E0
:100870008C179D0764F00E946D0183E090E00E9458
:10088000A50110922B0110922A010E946B02DF91A8
:10089000CF91089580913F01843031F021E030E024
:1008A00080914F01843011F420E030E0C9010895B7
:1008B0000E944A04009729F080E280933F01109241
:1008C0004F0108950E944A04009729F010923F01B9
:1008D00080E280934F01089580912C0190912D0129
:1008E0008C599F4F90932D0180932C0180912A0168
:1008F00090912B018456904090932B0180932A0174
:10090000089580912C0190912D0120912A01309120
:100910002B01843691056CF08456904090932D0104
:1009200080932C012C593F4F30932B0120932A01A7
:100930000895820F931F90932B0180932A011092A8
:100940002D0110922C010895809154019091550130
:100950008130910531F410925501109254010E949A
:100960006C0480912E0190912F018130910531F41A
:1009700010922F0110922E010E948104089581E0AF
:1009800090E09093550180935401089581E090E0A8
:1009900090932F0180932E01089580913F01882329
:1009A00019F484E080933F0180914F01882319F46A
:1009B00084E080934F01109229011092280108953C
:1009C000809152019091530108950E94E00280E0CD
:1009D00090E0DC018093240190932501A0932601EF
:1009E000B0932701109253011092520180ED97E0CD
:1009F00090935101809350010895C89902C00E94BC
:100A00006204C99902C00E94BF04CA9902C00E9430
:100A1000CD04CB9B02C00E94C604CC9902C00E94A8
:100A200058040895CA9902C00E94E5040895E19906
:100A3000FECF9FBB8EBB6DBBE29AE19A0895A0E00A
:100A4000B0E0E5E2F5E00C947509FC01EA01808173
:100A5000823008F438C1DB019C91923008F430C137
:100A6000843059F4943009F02EC1918111968C9103
:100A70001197981709F021C126C1943009F420C1BB
:100A80009230B1F4823009F01EC1CA01AF0128E0F2
:100A9000DA010D90AD01DC010D92CD012150C1F7BD
:100AA000DB0111968C9111979181892389830AC169
:100AB000823009F405C1C280D380DB0112966D90AB
:100AC0007C90139724813581468157811496ED904F
:100AD000FD900D911C911797C601861997095C012D
:100AE00097FF04C0AA24BB24A81AB90AB0E2AB1627
:100AF000B1040CF061C0181619066CF537014801F5
:100B00000A2C04C096948794779467940A94D2F739
:100B100081E090E0A0E0B0E00A2C04C0880F991FAB
:100B2000AA1FBB1F0A94D2F70197A109B1098E2110
:100B30009F21A023B123EE24FF248701E394009793
:100B4000A105B10519F4EE24FF248701E628F72852
:100B5000082919293CC00097D1F1CA0CDB1C3901C6
:100B60004A010A2C04C096948794779467940A9457
:100B7000D2F781E090E0A0E0B0E00A2C04C0880F3A
:100B8000991FAA1FBB1F0A94D2F70197A109B109A7
:100B900082239323A423B52321E030E040E050E0FA
:100BA0000097A105B10519F420E030E0A90126293C
:100BB0003729482959290BC06C147D0424F4EE24EC
:100BC000FF24870104C0630120E030E0A901818196
:100BD000FB019181891709F445C0882349F0D801A8
:100BE000C701821B930BA40BB50B9C01AD0104C084
:100BF0002E193F09400B510B57FD04C01982DB82AF
:100C0000CA820BC081E08983DB82CA8250954095FD
:100C1000309521953F4F4F4F5F4F2C833D834E833F
:100C20005F830DC0880F991FAA1FBB1F8C839D83F4
:100C3000AE83BF838A819B8101979B838A838C814A
:100C40009D81AE81BF819C01AD012150304040406B
:100C500050402F3FEFEF3E07EFEF4E07EFE35E0709
:100C600008F30BC08983DB82CA822E0D3F1D401F13
:100C7000511F2C833D834E835F8383E088832C81C7
:100C80003D814E815F8157FF1DC0DA01C90181702E
:100C90009070A070B0705695479537952795822B28
:100CA000932BA42BB52B8C839D83AE83BF838A812A
:100CB0009B8101969B838A8305C0E7E1F1E003C035
:100CC000FB0101C0FE01CF01CDB7DEB7EEE00C9411
:100CD0009109A0E2B0E0EFE6F6E00C947D096983AB
:100CE0007A838B839C832D833E834F83588789E04F
:100CF000E82EF12CEC0EFD1ECE010196B7010E94EC
:100D0000E1088E010F5E1F4FCE010596B8010E94CB
:100D1000E108C701B801AE01475E5F4F0E941F05A1
:100D20000E941308A096E6E00C949909A0E2B0E0B6
:100D3000ECE9F6E00C947D0969837A838B839C83CC
:100D40002D833E834F8358878E01075F1F4FCE014F
:100D50000196B8010E94E10891E1E92EF12CEC0E18
:100D6000FD1ECE010596B7010E94E1088A8991E037
:100D700089278A8BC801B701AE01475E5F4F0E9489
:100D80001F050E941308A096E6E00C949909A0E2C2
:100D9000B0E0EDECF6E00C94710969837A838B8303
:100DA0009C832D833E834F835887CE010196BE01DD
:100DB000675F7F4F0E94E108CE010596BE016F5E1E
:100DC0007F4F0E94E1089985923078F089898230BE
:100DD000C0F0943019F4823041F4CBC0843019F45F
:100DE000923079F4C6C0923051F481E02A859A8914
:100DF000291709F480E08A87CE010996BCC08230A9
:100E000051F481E02A859A89291709F480E08A8BB8
:100E1000CE014196B0C06D847E848F849888ED8821
:100E2000FE880F89188DE0E2F0E080E090E0DC01C0
:100E3000AA24BB24650120E030E0A901B301617060
:100E4000707061157105D1F02E0D3F1D401F511FAF
:100E500015012601280E391E4A1E5B1E81E090E016
:100E6000A0E0B0E02E153F054007510718F080E0E4
:100E700090E0DC01820D931DA41DB51DAA0CBB1CC6
:100E8000CC1CDD1C17FF09C061E0262E312C412C43
:100E9000512CA228B328C428D528319749F0EE0C4C
:100EA000FF1C001F111F9694879477946794C6CFF8
:100EB0006B897C89EB85FC856E0F7F1F6E5F7F4F92
:100EC0007C8F6B8F61E0EA857A89E71709F460E02F
:100ED0006A8F6B8D7C8D10C0FC01E170F0703097D3
:100EE00029F056954795379527955068B695A7955B
:100EF000979587956F5F7F4FB7FDEECF0CC0880F3A
:100F0000991FAA1FBB1F57FD8160220F331F441F6B
:100F1000551F615070408030E0E09E07E0E0AE0772
:100F2000E0E4BE0760F36B8F7C8F6FE7E62EF12C59
:100F3000012D112DE822F9220A231B2360E4E61675
:100F4000F1040105110561F487FD0AC02115310581
:100F50004105510529F0805C9F4FAF4FBF4F80780E
:100F60008D8F9E8FAF8FB8A383E0898FCE01499676
:100F700002C087E191E00E941308A096E2E10C9480
:100F80008D09ACE0B0E0E7ECF7E00C9481096983EF
:100F90007A838B839C83CE010196BE016B5F7F4F6A
:100FA0000E94E1088D81823081F1823070F18430BD
:100FB00021F48E81882369F10AC02F81388537FD9D
:100FC00024C06E812F3131053CF0662311F120E001
:100FD00030E040E050E821C08EE190E0821B930BAE
:100FE00029853A854B855C8504C05695479537958C
:100FF00027958A95D2F7662381F0509540953095D4
:1010000021953F4F4F4F5F4F08C020E030E0A901CE
:1010100004C02FEF3FEF4FEF5FE7B901CA012C96F5
:10102000E2E00C949D09EF92FF920F931F93CF93F0
:10103000DF93FC0124813581468157816181808164
:10104000823020F44061EFEFF0E0A3C0843009F477
:101050009BC0823009F492C021153105410551052C
:1010600009F48FC00280F381E02D8FEFE238F8079A
:101070000CF05AC0C2E8DFEFCE1BDF0BCA31D1053E
:101080006CF579018A010C2E04C016950795F7942A
:10109000E7940A94D2F781E090E0A0E0B0E00C2E53
:1010A00004C0880F991FAA1FBB1F0A94D2F701978B
:1010B000A109B10982239323A423B52321E030E0C1
:1010C00040E050E00097A105B10519F420E030E0C0
:1010D000A9012E293F29402B512B03C020E030E0ED
:1010E000A901DA01C9018F779070A070B0708034C7
:1010F0009105A105B10539F427FF09C0205C3F4FD8
:101100004F4F5F4F04C0215C3F4F4F4F5F4FE1E0B7
:10111000F0E0203080E0380780E0480780E458079E
:1011200028F5E0E0F0E022C0E038F1056CF5E15888
:10113000FF4FDA01C9018F779070A070B0708034D2
:101140009105A105B10539F427FF09C0205C3F4F87
:101150004F4F5F4F04C0215C3F4F4F4F5F4F57FFD2
:1011600005C05695479537952795319687E0569552
:101170004795379527958A95D1F70BC0E0E0F0E0C9
:1011800005C0E0E0F0E005C0EFEFF0E020E030E087
:10119000A9018E2F879588278795942F9F7767952C
:1011A00066276795E695E22EA92FA82BFE2FF62B32
:1011B000622F732F8A2F9F2FCDB7DEB7E6E00C94F6
:1011C0009909DC01FB012C9111963C911197129623
:1011D0008C911297482F4F7750E0982F991F99279D
:1011E000991F13966C911397862F880F892B90E087
:1011F000661F6627661F6183009739F52115310543
:101200004105510511F482E029C082E89FEF9383E4
:10121000828367E0220F331F441F551F6A95D1F761
:1012200083E0808309C0220F331F441F551F828132
:101230009381019793838283203080E0380780E098
:10124000480780E4580778F320C08F3F910579F470
:10125000211531054105510519F484E08083089575
:1012600044FF03C081E0808310C010820EC08F57FE
:1012700090409383828383E0808387E0220F331F33
:10128000441F551F8A95D1F75064248335834683C4
:101290005783089597FB092E07260AD077FD04D0BF
:1012A0000CD006D000201AF4709561957F4F0895F8
:1012B000F6F7909581959F4F0895AA1BBB1B51E1AE
:1012C00007C0AA1FBB1FA617B70710F0A61BB70BB6
:1012D000881F991F5A95A9F780959095BC01CD015B
:1012E00008952F923F924F925F926F927F928F92CA
:1012F0009F92AF92BF92CF92DF92EF92FF920F93A5
:101300001F93CF93DF93CDB7DEB7CA1BDB0B0FB6AE
:10131000F894DEBF0FBECDBF09942A88398848886B
:101320005F846E847D848C849B84AA84B984C88401
:10133000DF80EE80FD800C811B81AA81B981CE0FF8
:10134000D11D0FB6F894DEBF0FBECDBFED010895DD
:10135000AF92BF92CF92DF92EF92FF920F931F93C3
:10136000CF93DF93EC01688179818A819B8161153C
:1013700071058105910521F464E279ED8BE597E033
:101380002DE133EF41E050E00E94250A79018A0106
:1013900027EA31E440E050E00E94060A5B016C015C
:1013A000C801B7012CEE34EF4FEF5FEF0E94060A41
:1013B0006A0D7B1D8C1D9D1D97FF04C06150704000
:1013C00080409048688379838A839B837F77CB01B1
:1013D000DF91CF911F910F91FF90EF90DF90CF9011
:1013E000BF90AF9008950E94A80908958FE191E001
:1013F0000E94A8090895A0E0B0E080931F01909397
:101400002001A0932101B09322010895629FD00191
:10141000739FF001829FE00DF11D649FE00DF11DAF
:10142000929FF00D839FF00D749FF00D659FF00D5E
:101430009927729FB00DE11DF91F639FB00DE11D4B
:10144000F91FBD01CF011124089597FB092E052630
:101450000ED057FD04D014D00AD0001C38F450959B
:101460004095309521953F4F4F4F5F4F0895F6F7C8
:1014700090958095709561957F4F8F4F9F4F089500
:10148000A1E21A2EAA1BBB1BFD010DC0AA1FBB1F88
:10149000EE1FFF1FA217B307E407F50720F0A21BFA
:1014A000B30BE40BF50B661F771F881F991F1A9467
:1014B00069F760957095809590959B01AC01BD0191
:0814C000CF010895F894FFCF5D
:1014C80047414D45204F564552000000010001029A
:1014D8000300040400D00700000000000000000121
:0414E8000000000000
:00000001FF
